{
  "address": "0xe7f1725E7734CE288F8367e1Bb143E90bb3F0512",
  "abi": [
    {
      "inputs": [
        {
          "internalType": "address",
          "name": "_cryptoPawnToken",
          "type": "address"
        }
      ],
      "stateMutability": "nonpayable",
      "type": "constructor"
    },
    {
      "anonymous": false,
      "inputs": [
        {
          "components": [
            {
              "internalType": "uint256",
              "name": "id",
              "type": "uint256"
            },
            {
              "internalType": "uint256",
              "name": "nftTokenId",
              "type": "uint256"
            },
            {
              "internalType": "uint256",
              "name": "principal",
              "type": "uint256"
            },
            {
              "internalType": "uint256",
              "name": "interest",
              "type": "uint256"
            },
            {
              "internalType": "uint256",
              "name": "duration",
              "type": "uint256"
            },
            {
              "internalType": "uint256",
              "name": "startTime",
              "type": "uint256"
            },
            {
              "internalType": "address",
              "name": "lender",
              "type": "address"
            },
            {
              "internalType": "address",
              "name": "borrower",
              "type": "address"
            },
            {
              "internalType": "address",
              "name": "nftContract",
              "type": "address"
            },
            {
              "internalType": "enum MortgageState",
              "name": "state",
              "type": "uint8"
            }
          ],
          "indexed": false,
          "internalType": "struct Mortgage",
          "name": "mortgage",
          "type": "tuple"
        }
      ],
      "name": "Cancel",
      "type": "event"
    },
    {
      "anonymous": false,
      "inputs": [
        {
          "components": [
            {
              "internalType": "uint256",
              "name": "id",
              "type": "uint256"
            },
            {
              "internalType": "uint256",
              "name": "nftTokenId",
              "type": "uint256"
            },
            {
              "internalType": "uint256",
              "name": "principal",
              "type": "uint256"
            },
            {
              "internalType": "uint256",
              "name": "interest",
              "type": "uint256"
            },
            {
              "internalType": "uint256",
              "name": "duration",
              "type": "uint256"
            },
            {
              "internalType": "uint256",
              "name": "startTime",
              "type": "uint256"
            },
            {
              "internalType": "address",
              "name": "lender",
              "type": "address"
            },
            {
              "internalType": "address",
              "name": "borrower",
              "type": "address"
            },
            {
              "internalType": "address",
              "name": "nftContract",
              "type": "address"
            },
            {
              "internalType": "enum MortgageState",
              "name": "state",
              "type": "uint8"
            }
          ],
          "indexed": false,
          "internalType": "struct Mortgage",
          "name": "mortgage",
          "type": "tuple"
        }
      ],
      "name": "CreateLoan",
      "type": "event"
    },
    {
      "anonymous": false,
      "inputs": [
        {
          "indexed": true,
          "internalType": "address",
          "name": "from",
          "type": "address"
        },
        {
          "indexed": true,
          "internalType": "address",
          "name": "nft",
          "type": "address"
        },
        {
          "indexed": false,
          "internalType": "uint256",
          "name": "tokenId",
          "type": "uint256"
        }
      ],
      "name": "Deposited",
      "type": "event"
    },
    {
      "anonymous": false,
      "inputs": [
        {
          "components": [
            {
              "internalType": "uint256",
              "name": "id",
              "type": "uint256"
            },
            {
              "internalType": "uint256",
              "name": "nftTokenId",
              "type": "uint256"
            },
            {
              "internalType": "uint256",
              "name": "principal",
              "type": "uint256"
            },
            {
              "internalType": "uint256",
              "name": "interest",
              "type": "uint256"
            },
            {
              "internalType": "uint256",
              "name": "duration",
              "type": "uint256"
            },
            {
              "internalType": "uint256",
              "name": "startTime",
              "type": "uint256"
            },
            {
              "internalType": "address",
              "name": "lender",
              "type": "address"
            },
            {
              "internalType": "address",
              "name": "borrower",
              "type": "address"
            },
            {
              "internalType": "address",
              "name": "nftContract",
              "type": "address"
            },
            {
              "internalType": "enum MortgageState",
              "name": "state",
              "type": "uint8"
            }
          ],
          "indexed": false,
          "internalType": "struct Mortgage",
          "name": "mortgage",
          "type": "tuple"
        }
      ],
      "name": "Foreclose",
      "type": "event"
    },
    {
      "anonymous": false,
      "inputs": [
        {
          "components": [
            {
              "internalType": "uint256",
              "name": "id",
              "type": "uint256"
            },
            {
              "internalType": "uint256",
              "name": "nftTokenId",
              "type": "uint256"
            },
            {
              "internalType": "uint256",
              "name": "principal",
              "type": "uint256"
            },
            {
              "internalType": "uint256",
              "name": "interest",
              "type": "uint256"
            },
            {
              "internalType": "uint256",
              "name": "duration",
              "type": "uint256"
            },
            {
              "internalType": "uint256",
              "name": "startTime",
              "type": "uint256"
            },
            {
              "internalType": "address",
              "name": "lender",
              "type": "address"
            },
            {
              "internalType": "address",
              "name": "borrower",
              "type": "address"
            },
            {
              "internalType": "address",
              "name": "nftContract",
              "type": "address"
            },
            {
              "internalType": "enum MortgageState",
              "name": "state",
              "type": "uint8"
            }
          ],
          "indexed": false,
          "internalType": "struct Mortgage",
          "name": "mortgage",
          "type": "tuple"
        }
      ],
      "name": "Lend",
      "type": "event"
    },
    {
      "anonymous": false,
      "inputs": [
        {
          "components": [
            {
              "internalType": "uint256",
              "name": "id",
              "type": "uint256"
            },
            {
              "internalType": "uint256",
              "name": "nftTokenId",
              "type": "uint256"
            },
            {
              "internalType": "uint256",
              "name": "principal",
              "type": "uint256"
            },
            {
              "internalType": "uint256",
              "name": "interest",
              "type": "uint256"
            },
            {
              "internalType": "uint256",
              "name": "duration",
              "type": "uint256"
            },
            {
              "internalType": "uint256",
              "name": "startTime",
              "type": "uint256"
            },
            {
              "internalType": "address",
              "name": "lender",
              "type": "address"
            },
            {
              "internalType": "address",
              "name": "borrower",
              "type": "address"
            },
            {
              "internalType": "address",
              "name": "nftContract",
              "type": "address"
            },
            {
              "internalType": "enum MortgageState",
              "name": "state",
              "type": "uint8"
            }
          ],
          "indexed": false,
          "internalType": "struct Mortgage",
          "name": "mortgage",
          "type": "tuple"
        }
      ],
      "name": "Repay",
      "type": "event"
    },
    {
      "anonymous": false,
      "inputs": [
        {
          "indexed": true,
          "internalType": "address",
          "name": "to",
          "type": "address"
        },
        {
          "indexed": true,
          "internalType": "address",
          "name": "nft",
          "type": "address"
        },
        {
          "indexed": false,
          "internalType": "uint256",
          "name": "tokenId",
          "type": "uint256"
        }
      ],
      "name": "Withdrawn",
      "type": "event"
    },
    {
      "inputs": [
        {
          "internalType": "uint256",
          "name": "_mortgageId",
          "type": "uint256"
        }
      ],
      "name": "cancel",
      "outputs": [],
      "stateMutability": "nonpayable",
      "type": "function"
    },
    {
      "inputs": [
        {
          "internalType": "uint256",
          "name": "_nftTokenId",
          "type": "uint256"
        },
        {
          "internalType": "address",
          "name": "_nftContract",
          "type": "address"
        },
        {
          "internalType": "uint256",
          "name": "_principal",
          "type": "uint256"
        },
        {
          "internalType": "uint256",
          "name": "_interest",
          "type": "uint256"
        },
        {
          "internalType": "uint256",
          "name": "_duration",
          "type": "uint256"
        }
      ],
      "name": "createLoan",
      "outputs": [
        {
          "internalType": "uint256",
          "name": "",
          "type": "uint256"
        }
      ],
      "stateMutability": "nonpayable",
      "type": "function"
    },
    {
      "inputs": [],
      "name": "cryptoPawnToken",
      "outputs": [
        {
          "internalType": "contract ICryptoPawnToken",
          "name": "",
          "type": "address"
        }
      ],
      "stateMutability": "view",
      "type": "function"
    },
    {
      "inputs": [
        {
          "internalType": "uint256",
          "name": "_mortgageId",
          "type": "uint256"
        }
      ],
      "name": "foreclose",
      "outputs": [],
      "stateMutability": "nonpayable",
      "type": "function"
    },
    {
      "inputs": [],
      "name": "getAllMortgages",
      "outputs": [
        {
          "components": [
            {
              "internalType": "uint256",
              "name": "id",
              "type": "uint256"
            },
            {
              "internalType": "uint256",
              "name": "nftTokenId",
              "type": "uint256"
            },
            {
              "internalType": "uint256",
              "name": "principal",
              "type": "uint256"
            },
            {
              "internalType": "uint256",
              "name": "interest",
              "type": "uint256"
            },
            {
              "internalType": "uint256",
              "name": "duration",
              "type": "uint256"
            },
            {
              "internalType": "uint256",
              "name": "startTime",
              "type": "uint256"
            },
            {
              "internalType": "address",
              "name": "lender",
              "type": "address"
            },
            {
              "internalType": "address",
              "name": "borrower",
              "type": "address"
            },
            {
              "internalType": "address",
              "name": "nftContract",
              "type": "address"
            },
            {
              "internalType": "enum MortgageState",
              "name": "state",
              "type": "uint8"
            }
          ],
          "internalType": "struct Mortgage[]",
          "name": "",
          "type": "tuple[]"
        }
      ],
      "stateMutability": "view",
      "type": "function"
    },
    {
      "inputs": [
        {
          "internalType": "uint256",
          "name": "_mortgageId",
          "type": "uint256"
        }
      ],
      "name": "getMortgage",
      "outputs": [
        {
          "components": [
            {
              "internalType": "uint256",
              "name": "id",
              "type": "uint256"
            },
            {
              "internalType": "uint256",
              "name": "nftTokenId",
              "type": "uint256"
            },
            {
              "internalType": "uint256",
              "name": "principal",
              "type": "uint256"
            },
            {
              "internalType": "uint256",
              "name": "interest",
              "type": "uint256"
            },
            {
              "internalType": "uint256",
              "name": "duration",
              "type": "uint256"
            },
            {
              "internalType": "uint256",
              "name": "startTime",
              "type": "uint256"
            },
            {
              "internalType": "address",
              "name": "lender",
              "type": "address"
            },
            {
              "internalType": "address",
              "name": "borrower",
              "type": "address"
            },
            {
              "internalType": "address",
              "name": "nftContract",
              "type": "address"
            },
            {
              "internalType": "enum MortgageState",
              "name": "state",
              "type": "uint8"
            }
          ],
          "internalType": "struct Mortgage",
          "name": "",
          "type": "tuple"
        }
      ],
      "stateMutability": "view",
      "type": "function"
    },
    {
      "inputs": [
        {
          "internalType": "address",
          "name": "_borrower",
          "type": "address"
        }
      ],
      "name": "getMortgagesByBorrower",
      "outputs": [
        {
          "components": [
            {
              "internalType": "uint256",
              "name": "id",
              "type": "uint256"
            },
            {
              "internalType": "uint256",
              "name": "nftTokenId",
              "type": "uint256"
            },
            {
              "internalType": "uint256",
              "name": "principal",
              "type": "uint256"
            },
            {
              "internalType": "uint256",
              "name": "interest",
              "type": "uint256"
            },
            {
              "internalType": "uint256",
              "name": "duration",
              "type": "uint256"
            },
            {
              "internalType": "uint256",
              "name": "startTime",
              "type": "uint256"
            },
            {
              "internalType": "address",
              "name": "lender",
              "type": "address"
            },
            {
              "internalType": "address",
              "name": "borrower",
              "type": "address"
            },
            {
              "internalType": "address",
              "name": "nftContract",
              "type": "address"
            },
            {
              "internalType": "enum MortgageState",
              "name": "state",
              "type": "uint8"
            }
          ],
          "internalType": "struct Mortgage[]",
          "name": "",
          "type": "tuple[]"
        }
      ],
      "stateMutability": "view",
      "type": "function"
    },
    {
      "inputs": [
        {
          "internalType": "address",
          "name": "_lender",
          "type": "address"
        }
      ],
      "name": "getMortgagesByLender",
      "outputs": [
        {
          "components": [
            {
              "internalType": "uint256",
              "name": "id",
              "type": "uint256"
            },
            {
              "internalType": "uint256",
              "name": "nftTokenId",
              "type": "uint256"
            },
            {
              "internalType": "uint256",
              "name": "principal",
              "type": "uint256"
            },
            {
              "internalType": "uint256",
              "name": "interest",
              "type": "uint256"
            },
            {
              "internalType": "uint256",
              "name": "duration",
              "type": "uint256"
            },
            {
              "internalType": "uint256",
              "name": "startTime",
              "type": "uint256"
            },
            {
              "internalType": "address",
              "name": "lender",
              "type": "address"
            },
            {
              "internalType": "address",
              "name": "borrower",
              "type": "address"
            },
            {
              "internalType": "address",
              "name": "nftContract",
              "type": "address"
            },
            {
              "internalType": "enum MortgageState",
              "name": "state",
              "type": "uint8"
            }
          ],
          "internalType": "struct Mortgage[]",
          "name": "",
          "type": "tuple[]"
        }
      ],
      "stateMutability": "view",
      "type": "function"
    },
    {
      "inputs": [
        {
          "internalType": "uint256",
          "name": "_mortgageId",
          "type": "uint256"
        }
      ],
      "name": "lend",
      "outputs": [],
      "stateMutability": "nonpayable",
      "type": "function"
    },
    {
      "inputs": [
        {
          "internalType": "address",
          "name": "operator",
          "type": "address"
        },
        {
          "internalType": "address",
          "name": "from",
          "type": "address"
        },
        {
          "internalType": "uint256",
          "name": "tokenId",
          "type": "uint256"
        },
        {
          "internalType": "bytes",
          "name": "data",
          "type": "bytes"
        }
      ],
      "name": "onERC721Received",
      "outputs": [
        {
          "internalType": "bytes4",
          "name": "",
          "type": "bytes4"
        }
      ],
      "stateMutability": "pure",
      "type": "function"
    },
    {
      "inputs": [
        {
          "internalType": "uint256",
          "name": "_mortgageId",
          "type": "uint256"
        }
      ],
      "name": "repay",
      "outputs": [],
      "stateMutability": "nonpayable",
      "type": "function"
    }
  ],
  "transactionHash": "0x082594d58687cf0de0dbfe662a2bf23205d6cdea30f0ba0d9408a2c4cdee062b",
  "args": [
    "0x5FbDB2315678afecb367f032d93F642f64180aa3"
  ],
  "numDeployments": 1,
  "solcInputHash": "be740b3f9d64434e9fe338b8880e8fca",
  "bytecode": "0x60806040526000805534801561001457600080fd5b50604051613d82380380613d8283398181016040528101906100369190610151565b80600073ffffffffffffffffffffffffffffffffffffffff168173ffffffffffffffffffffffffffffffffffffffff16036100a6576040517f08c379a000000000000000000000000000000000000000000000000000000000815260040161009d906101db565b60405180910390fd5b80600260006101000a81548173ffffffffffffffffffffffffffffffffffffffff021916908373ffffffffffffffffffffffffffffffffffffffff16021790555050506101fb565b600080fd5b600073ffffffffffffffffffffffffffffffffffffffff82169050919050565b600061011e826100f3565b9050919050565b61012e81610113565b811461013957600080fd5b50565b60008151905061014b81610125565b92915050565b600060208284031215610167576101666100ee565b5b60006101758482850161013c565b91505092915050565b600082825260208201905092915050565b7f496e76616c696420746f6b656e20616464726573730000000000000000000000600082015250565b60006101c560158361017e565b91506101d08261018f565b602082019050919050565b600060208201905081810360008301526101f4816101b8565b9050919050565b613b788061020a6000396000f3fe608060405234801561001057600080fd5b50600436106100a95760003560e01c806340e58ee51161007157806340e58ee5146101785780638bf1badd14610194578063a6aa57ce146101b0578063c6c22577146101cc578063c7af1c06146101ea578063ee1580cb1461021a576100a9565b80630aa2890a146100ae5780630c82f315146100cc578063150b7a02146100fc5780632a2cf98f1461012c578063371fd8e61461015c575b600080fd5b6100b661024a565b6040516100c391906128a7565b60405180910390f35b6100e660048036038101906100e191906128ff565b610492565b6040516100f391906129f8565b60405180910390f35b61011660048036038101906101119190612aa5565b610639565b6040516101239190612b68565b60405180910390f35b61014660048036038101906101419190612b83565b61064e565b6040516101539190612c0d565b60405180910390f35b610176600480360381019061017191906128ff565b610ab1565b005b610192600480360381019061018d91906128ff565b610f3f565b005b6101ae60048036038101906101a991906128ff565b6110f7565b005b6101ca60048036038101906101c591906128ff565b6112fc565b005b6101d461160a565b6040516101e19190612c87565b60405180910390f35b61020460048036038101906101ff9190612ca2565b611630565b60405161021191906128a7565b60405180910390f35b610234600480360381019061022f9190612ca2565b611985565b60405161024191906128a7565b60405180910390f35b60606000805467ffffffffffffffff81111561026957610268612ccf565b5b6040519080825280602002602001820160405280156102a257816020015b61028f6125b3565b8152602001906001900390816102875790505b5090506000600190505b600054811161048a5760016000828152602001908152602001600020604051806101400160405290816000820154815260200160018201548152602001600282015481526020016003820154815260200160048201548152602001600582015481526020016006820160009054906101000a900473ffffffffffffffffffffffffffffffffffffffff1673ffffffffffffffffffffffffffffffffffffffff1673ffffffffffffffffffffffffffffffffffffffff1681526020016007820160009054906101000a900473ffffffffffffffffffffffffffffffffffffffff1673ffffffffffffffffffffffffffffffffffffffff1673ffffffffffffffffffffffffffffffffffffffff1681526020016008820160009054906101000a900473ffffffffffffffffffffffffffffffffffffffff1673ffffffffffffffffffffffffffffffffffffffff1673ffffffffffffffffffffffffffffffffffffffff1681526020016008820160149054906101000a900460ff166004811115610437576104366126e0565b5b6004811115610449576104486126e0565b5b815250508260018361045b9190612d2d565b8151811061046c5761046b612d61565b5b6020026020010181905250808061048290612d90565b9150506102ac565b508091505090565b61049a6125b3565b60016000838152602001908152602001600020604051806101400160405290816000820154815260200160018201548152602001600282015481526020016003820154815260200160048201548152602001600582015481526020016006820160009054906101000a900473ffffffffffffffffffffffffffffffffffffffff1673ffffffffffffffffffffffffffffffffffffffff1673ffffffffffffffffffffffffffffffffffffffff1681526020016007820160009054906101000a900473ffffffffffffffffffffffffffffffffffffffff1673ffffffffffffffffffffffffffffffffffffffff1673ffffffffffffffffffffffffffffffffffffffff1681526020016008820160009054906101000a900473ffffffffffffffffffffffffffffffffffffffff1673ffffffffffffffffffffffffffffffffffffffff1673ffffffffffffffffffffffffffffffffffffffff1681526020016008820160149054906101000a900460ff16600481111561061c5761061b6126e0565b5b600481111561062e5761062d6126e0565b5b815250509050919050565b600063150b7a0260e01b905095945050505050565b60008073ffffffffffffffffffffffffffffffffffffffff168573ffffffffffffffffffffffffffffffffffffffff16036106be576040517f08c379a00000000000000000000000000000000000000000000000000000000081526004016106b590612e35565b60405180910390fd5b60008411610701576040517f08c379a00000000000000000000000000000000000000000000000000000000081526004016106f890612ea1565b60405180910390fd5b620f4240841115610747576040517f08c379a000000000000000000000000000000000000000000000000000000000815260040161073e90612f33565b60405180910390fd5b6000821161078a576040517f08c379a000000000000000000000000000000000000000000000000000000000815260040161078190612f9f565b60405180910390fd5b61016d8211156107cf576040517f08c379a00000000000000000000000000000000000000000000000000000000081526004016107c690613031565b60405180910390fd5b6064831115610813576040517f08c379a000000000000000000000000000000000000000000000000000000000815260040161080a906130c3565b60405180910390fd5b60008311610856576040517f08c379a000000000000000000000000000000000000000000000000000000000815260040161084d9061312f565b60405180910390fd5b60008081548092919061086890612d90565b91905055506000604051806101400160405280600054815260200188815260200186815260200185815260200184815260200160008152602001600073ffffffffffffffffffffffffffffffffffffffff1681526020013373ffffffffffffffffffffffffffffffffffffffff1681526020018773ffffffffffffffffffffffffffffffffffffffff1681526020016000600481111561090b5761090a6126e0565b5b8152509050806001600080548152602001908152602001600020600082015181600001556020820151816001015560408201518160020155606082015181600301556080820151816004015560a0820151816005015560c08201518160060160006101000a81548173ffffffffffffffffffffffffffffffffffffffff021916908373ffffffffffffffffffffffffffffffffffffffff16021790555060e08201518160070160006101000a81548173ffffffffffffffffffffffffffffffffffffffff021916908373ffffffffffffffffffffffffffffffffffffffff1602179055506101008201518160080160006101000a81548173ffffffffffffffffffffffffffffffffffffffff021916908373ffffffffffffffffffffffffffffffffffffffff1602179055506101208201518160080160146101000a81548160ff02191690836004811115610a6357610a626126e0565b5b02179055509050507f6d8d9c61950f09a2df6a3f6dfdfdcd7a88f822d4d857b09f53df8825b711c00a81604051610a9a91906129f8565b60405180910390a160005491505095945050505050565b3373ffffffffffffffffffffffffffffffffffffffff166001600083815260200190815260200160002060070160009054906101000a900473ffffffffffffffffffffffffffffffffffffffff1673ffffffffffffffffffffffffffffffffffffffff1614610b55576040517f08c379a0000000000000000000000000000000000000000000000000000000008152600401610b4c9061319b565b60405180910390fd5b60026004811115610b6957610b686126e0565b5b6001600083815260200190815260200160002060080160149054906101000a900460ff166004811115610b9f57610b9e6126e0565b5b14610bdf576040517f08c379a0000000000000000000000000000000000000000000000000000000008152600401610bd690613207565b60405180910390fd5b4260016000838152602001908152602001600020600401546001600084815260200190815260200160002060050154610c189190613227565b1015610c59576040517f08c379a0000000000000000000000000000000000000000000000000000000008152600401610c50906132a7565b60405180910390fd5b6000610ca8600160008481526020019081526020016000206002015460016000858152602001908152602001600020600301546001600086815260200190815260200160002060040154611cda565b905080600260009054906101000a900473ffffffffffffffffffffffffffffffffffffffff1673ffffffffffffffffffffffffffffffffffffffff166370a08231336040518263ffffffff1660e01b8152600401610d0691906132d6565b602060405180830381865afa158015610d23573d6000803e3d6000fd5b505050506040513d601f19601f82011682018060405250810190610d479190613306565b1015610d88576040517f08c379a0000000000000000000000000000000000000000000000000000000008152600401610d7f9061337f565b60405180910390fd5b80600260009054906101000a900473ffffffffffffffffffffffffffffffffffffffff1673ffffffffffffffffffffffffffffffffffffffff1663dd62ed3e33306040518363ffffffff1660e01b8152600401610de692919061339f565b602060405180830381865afa158015610e03573d6000803e3d6000fd5b505050506040513d601f19601f82011682018060405250810190610e279190613306565b1015610e68576040517f08c379a0000000000000000000000000000000000000000000000000000000008152600401610e5f90613414565b60405180910390fd5b610ea9336001600085815260200190815260200160002060060160009054906101000a900473ffffffffffffffffffffffffffffffffffffffff1683611d3e565b610eb3823361210b565b60036001600084815260200190815260200160002060080160146101000a81548160ff02191690836004811115610eed57610eec6126e0565b5b02179055507fc9c97644e8127723d680038335e0fd6aed56cbe1065da6940900f3d74a40ccce60016000848152602001908152602001600020604051610f339190613606565b60405180910390a15050565b3373ffffffffffffffffffffffffffffffffffffffff166001600083815260200190815260200160002060070160009054906101000a900473ffffffffffffffffffffffffffffffffffffffff1673ffffffffffffffffffffffffffffffffffffffff1614610fe3576040517f08c379a0000000000000000000000000000000000000000000000000000000008152600401610fda9061319b565b60405180910390fd5b60006004811115610ff757610ff66126e0565b5b6001600083815260200190815260200160002060080160149054906101000a900460ff16600481111561102d5761102c6126e0565b5b1461106d576040517f08c379a00000000000000000000000000000000000000000000000000000000081526004016110649061366e565b60405180910390fd5b600180600083815260200190815260200160002060080160146101000a81548160ff021916908360048111156110a6576110a56126e0565b5b02179055507f73366bead4accfd67e4f24d503001a262cea91114eedb62c0e59f3fddee38bf3600160008381526020019081526020016000206040516110ec9190613606565b60405180910390a150565b3373ffffffffffffffffffffffffffffffffffffffff166001600083815260200190815260200160002060060160009054906101000a900473ffffffffffffffffffffffffffffffffffffffff1673ffffffffffffffffffffffffffffffffffffffff161461119b576040517f08c379a0000000000000000000000000000000000000000000000000000000008152600401611192906136da565b60405180910390fd5b600160008281526020019081526020016000206004015460016000838152602001908152602001600020600501546111d39190613227565b421015806112285750600360048111156111f0576111ef6126e0565b5b6001600083815260200190815260200160002060080160149054906101000a900460ff166004811115611226576112256126e0565b5b145b611267576040517f08c379a000000000000000000000000000000000000000000000000000000000815260040161125e9061376c565b60405180910390fd5b611271813361210b565b60046001600083815260200190815260200160002060080160146101000a81548160ff021916908360048111156112ab576112aa6126e0565b5b02179055507f89e8ac60419d6969368fd2d03dead8c43bdfd5c03193edd8881f03a3d33d32a0600160008381526020019081526020016000206040516112f19190613606565b60405180910390a150565b3373ffffffffffffffffffffffffffffffffffffffff166001600083815260200190815260200160002060070160009054906101000a900473ffffffffffffffffffffffffffffffffffffffff1673ffffffffffffffffffffffffffffffffffffffff16036113a0576040517f08c379a0000000000000000000000000000000000000000000000000000000008152600401611397906137d8565b60405180910390fd5b600060048111156113b4576113b36126e0565b5b6001600083815260200190815260200160002060080160149054906101000a900460ff1660048111156113ea576113e96126e0565b5b1461142a576040517f08c379a00000000000000000000000000000000000000000000000000000000081526004016114219061366e565b60405180910390fd5b336001600083815260200190815260200160002060060160006101000a81548173ffffffffffffffffffffffffffffffffffffffff021916908373ffffffffffffffffffffffffffffffffffffffff16021790555060026001600083815260200190815260200160002060080160146101000a81548160ff021916908360048111156114b9576114b86126e0565b5b0217905550426001600083815260200190815260200160002060050181905550611530336001600084815260200190815260200160002060070160009054906101000a900473ffffffffffffffffffffffffffffffffffffffff166001600085815260200190815260200160002060020154611d3e565b6115be816001600084815260200190815260200160002060080160009054906101000a900473ffffffffffffffffffffffffffffffffffffffff1660016000858152602001908152602001600020600101546001600086815260200190815260200160002060070160009054906101000a900473ffffffffffffffffffffffffffffffffffffffff166122bb565b7f0c88cfac6f3fcf2be2a322c871540980ccc2ffc0a9c43bac271882bce4d19626600160008381526020019081526020016000206040516115ff9190613606565b60405180910390a150565b600260009054906101000a900473ffffffffffffffffffffffffffffffffffffffff1681565b6060600080600190505b60005481116116ce578373ffffffffffffffffffffffffffffffffffffffff166001600083815260200190815260200160002060070160009054906101000a900473ffffffffffffffffffffffffffffffffffffffff1673ffffffffffffffffffffffffffffffffffffffff16036116bb5781806116b790612d90565b9250505b80806116c690612d90565b91505061163a565b5060008167ffffffffffffffff8111156116eb576116ea612ccf565b5b60405190808252806020026020018201604052801561172457816020015b6117116125b3565b8152602001906001900390816117095790505b509050600080600190505b6000548111611979578573ffffffffffffffffffffffffffffffffffffffff166001600083815260200190815260200160002060070160009054906101000a900473ffffffffffffffffffffffffffffffffffffffff1673ffffffffffffffffffffffffffffffffffffffff16036119665760016000828152602001908152602001600020604051806101400160405290816000820154815260200160018201548152602001600282015481526020016003820154815260200160048201548152602001600582015481526020016006820160009054906101000a900473ffffffffffffffffffffffffffffffffffffffff1673ffffffffffffffffffffffffffffffffffffffff1673ffffffffffffffffffffffffffffffffffffffff1681526020016007820160009054906101000a900473ffffffffffffffffffffffffffffffffffffffff1673ffffffffffffffffffffffffffffffffffffffff1673ffffffffffffffffffffffffffffffffffffffff1681526020016008820160009054906101000a900473ffffffffffffffffffffffffffffffffffffffff1673ffffffffffffffffffffffffffffffffffffffff1673ffffffffffffffffffffffffffffffffffffffff1681526020016008820160149054906101000a900460ff166004811115611923576119226126e0565b5b6004811115611935576119346126e0565b5b8152505083838151811061194c5761194b612d61565b5b6020026020010181905250818061196290612d90565b9250505b808061197190612d90565b91505061172f565b50819350505050919050565b6060600080600190505b6000548111611a23578373ffffffffffffffffffffffffffffffffffffffff166001600083815260200190815260200160002060060160009054906101000a900473ffffffffffffffffffffffffffffffffffffffff1673ffffffffffffffffffffffffffffffffffffffff1603611a10578180611a0c90612d90565b9250505b8080611a1b90612d90565b91505061198f565b5060008167ffffffffffffffff811115611a4057611a3f612ccf565b5b604051908082528060200260200182016040528015611a7957816020015b611a666125b3565b815260200190600190039081611a5e5790505b509050600080600190505b6000548111611cce578573ffffffffffffffffffffffffffffffffffffffff166001600083815260200190815260200160002060060160009054906101000a900473ffffffffffffffffffffffffffffffffffffffff1673ffffffffffffffffffffffffffffffffffffffff1603611cbb5760016000828152602001908152602001600020604051806101400160405290816000820154815260200160018201548152602001600282015481526020016003820154815260200160048201548152602001600582015481526020016006820160009054906101000a900473ffffffffffffffffffffffffffffffffffffffff1673ffffffffffffffffffffffffffffffffffffffff1673ffffffffffffffffffffffffffffffffffffffff1681526020016007820160009054906101000a900473ffffffffffffffffffffffffffffffffffffffff1673ffffffffffffffffffffffffffffffffffffffff1673ffffffffffffffffffffffffffffffffffffffff1681526020016008820160009054906101000a900473ffffffffffffffffffffffffffffffffffffffff1673ffffffffffffffffffffffffffffffffffffffff1673ffffffffffffffffffffffffffffffffffffffff1681526020016008820160149054906101000a900460ff166004811115611c7857611c776126e0565b5b6004811115611c8a57611c896126e0565b5b81525050838381518110611ca157611ca0612d61565b5b60200260200101819052508180611cb790612d90565b9250505b8080611cc690612d90565b915050611a84565b50819350505050919050565b600080611cf5600161016d866124d99092919063ffffffff16565b90506000611d25846001611d16856127108b6124d99092919063ffffffff16565b6124d99092919063ffffffff16565b90508086611d339190613227565b925050509392505050565b600073ffffffffffffffffffffffffffffffffffffffff168373ffffffffffffffffffffffffffffffffffffffff1603611dad576040517f08c379a0000000000000000000000000000000000000000000000000000000008152600401611da490613844565b60405180910390fd5b600073ffffffffffffffffffffffffffffffffffffffff168273ffffffffffffffffffffffffffffffffffffffff1603611e1c576040517f08c379a0000000000000000000000000000000000000000000000000000000008152600401611e13906138b0565b60405180910390fd5b60008111611e5f576040517f08c379a0000000000000000000000000000000000000000000000000000000008152600401611e569061391c565b60405180910390fd5b620f4240811115611ea5576040517f08c379a0000000000000000000000000000000000000000000000000000000008152600401611e9c906139ae565b60405180910390fd5b80600260009054906101000a900473ffffffffffffffffffffffffffffffffffffffff1673ffffffffffffffffffffffffffffffffffffffff166370a08231856040518263ffffffff1660e01b8152600401611f0191906132d6565b602060405180830381865afa158015611f1e573d6000803e3d6000fd5b505050506040513d601f19601f82011682018060405250810190611f429190613306565b1015611f83576040517f08c379a0000000000000000000000000000000000000000000000000000000008152600401611f7a90613a1a565b60405180910390fd5b80600260009054906101000a900473ffffffffffffffffffffffffffffffffffffffff1673ffffffffffffffffffffffffffffffffffffffff1663dd62ed3e85306040518363ffffffff1660e01b8152600401611fe192919061339f565b602060405180830381865afa158015611ffe573d6000803e3d6000fd5b505050506040513d601f19601f820116820180604052508101906120229190613306565b1015612063576040517f08c379a000000000000000000000000000000000000000000000000000000000815260040161205a90613414565b60405180910390fd5b600260009054906101000a900473ffffffffffffffffffffffffffffffffffffffff1673ffffffffffffffffffffffffffffffffffffffff166323b872dd8484846040518463ffffffff1660e01b81526004016120c293929190613a3a565b6020604051808303816000875af11580156120e1573d6000803e3d6000fd5b505050506040513d601f19601f820116820180604052508101906121059190613aa9565b50505050565b6000600360008481526020019081526020016000206040518060400160405290816000820160009054906101000a900473ffffffffffffffffffffffffffffffffffffffff1673ffffffffffffffffffffffffffffffffffffffff1673ffffffffffffffffffffffffffffffffffffffff1681526020016001820154815250509050806000015173ffffffffffffffffffffffffffffffffffffffff166342842e0e308484602001516040518463ffffffff1660e01b81526004016121d293929190613a3a565b600060405180830381600087803b1580156121ec57600080fd5b505af1158015612200573d6000803e3d6000fd5b5050505060036000848152602001908152602001600020600080820160006101000a81549073ffffffffffffffffffffffffffffffffffffffff021916905560018201600090555050806000015173ffffffffffffffffffffffffffffffffffffffff168273ffffffffffffffffffffffffffffffffffffffff167fd1c19fbcd4551a5edfb66d43d2e337c04837afda3482b42bdf569a8fccdae5fb83602001516040516122ae9190612c0d565b60405180910390a3505050565b600084116122fe576040517f08c379a00000000000000000000000000000000000000000000000000000000081526004016122f590613b22565b60405180910390fd5b600073ffffffffffffffffffffffffffffffffffffffff168373ffffffffffffffffffffffffffffffffffffffff160361236d576040517f08c379a000000000000000000000000000000000000000000000000000000000815260040161236490612e35565b60405180910390fd5b8273ffffffffffffffffffffffffffffffffffffffff166342842e0e8230856040518463ffffffff1660e01b81526004016123aa93929190613a3a565b600060405180830381600087803b1580156123c457600080fd5b505af11580156123d8573d6000803e3d6000fd5b5050505060405180604001604052808473ffffffffffffffffffffffffffffffffffffffff168152602001838152506003600086815260200190815260200160002060008201518160000160006101000a81548173ffffffffffffffffffffffffffffffffffffffff021916908373ffffffffffffffffffffffffffffffffffffffff160217905550602082015181600101559050508273ffffffffffffffffffffffffffffffffffffffff168173ffffffffffffffffffffffffffffffffffffffff167f8752a472e571a816aea92eec8dae9baf628e840f4929fbcc2d155e6233ff68a7846040516124cb9190612c0d565b60405180910390a350505050565b6000806000801985870985870292508281108382030391505060008103612513576000841161250757600080fd5b838204925050506125ac565b80841161251f57600080fd5b60008486880990508281118203915080830392506000856001871901169050808604955080840493506001818260000304019050808302841793506000600287600302189050808702600203810290508087026002038102905080870260020381029050808702600203810290508087026002038102905080870260020381029050808502955050505050505b9392505050565b604051806101400160405280600081526020016000815260200160008152602001600081526020016000815260200160008152602001600073ffffffffffffffffffffffffffffffffffffffff168152602001600073ffffffffffffffffffffffffffffffffffffffff168152602001600073ffffffffffffffffffffffffffffffffffffffff16815260200160006004811115612654576126536126e0565b5b81525090565b600081519050919050565b600082825260208201905092915050565b6000819050602082019050919050565b6000819050919050565b61269981612686565b82525050565b600073ffffffffffffffffffffffffffffffffffffffff82169050919050565b60006126ca8261269f565b9050919050565b6126da816126bf565b82525050565b7f4e487b7100000000000000000000000000000000000000000000000000000000600052602160045260246000fd5b600581106127205761271f6126e0565b5b50565b60008190506127318261270f565b919050565b600061274182612723565b9050919050565b61275181612736565b82525050565b6101408201600082015161276e6000850182612690565b5060208201516127816020850182612690565b5060408201516127946040850182612690565b5060608201516127a76060850182612690565b5060808201516127ba6080850182612690565b5060a08201516127cd60a0850182612690565b5060c08201516127e060c08501826126d1565b5060e08201516127f360e08501826126d1565b506101008201516128086101008501826126d1565b5061012082015161281d610120850182612748565b50505050565b600061282f8383612757565b6101408301905092915050565b6000602082019050919050565b60006128548261265a565b61285e8185612665565b935061286983612676565b8060005b8381101561289a5781516128818882612823565b975061288c8361283c565b92505060018101905061286d565b5085935050505092915050565b600060208201905081810360008301526128c18184612849565b905092915050565b600080fd5b600080fd5b6128dc81612686565b81146128e757600080fd5b50565b6000813590506128f9816128d3565b92915050565b600060208284031215612915576129146128c9565b5b6000612923848285016128ea565b91505092915050565b610140820160008201516129436000850182612690565b5060208201516129566020850182612690565b5060408201516129696040850182612690565b50606082015161297c6060850182612690565b50608082015161298f6080850182612690565b5060a08201516129a260a0850182612690565b5060c08201516129b560c08501826126d1565b5060e08201516129c860e08501826126d1565b506101008201516129dd6101008501826126d1565b506101208201516129f2610120850182612748565b50505050565b600061014082019050612a0e600083018461292c565b92915050565b612a1d816126bf565b8114612a2857600080fd5b50565b600081359050612a3a81612a14565b92915050565b600080fd5b600080fd5b600080fd5b60008083601f840112612a6557612a64612a40565b5b8235905067ffffffffffffffff811115612a8257612a81612a45565b5b602083019150836001820283011115612a9e57612a9d612a4a565b5b9250929050565b600080600080600060808688031215612ac157612ac06128c9565b5b6000612acf88828901612a2b565b9550506020612ae088828901612a2b565b9450506040612af1888289016128ea565b935050606086013567ffffffffffffffff811115612b1257612b116128ce565b5b612b1e88828901612a4f565b92509250509295509295909350565b60007fffffffff0000000000000000000000000000000000000000000000000000000082169050919050565b612b6281612b2d565b82525050565b6000602082019050612b7d6000830184612b59565b92915050565b600080600080600060a08688031215612b9f57612b9e6128c9565b5b6000612bad888289016128ea565b9550506020612bbe88828901612a2b565b9450506040612bcf888289016128ea565b9350506060612be0888289016128ea565b9250506080612bf1888289016128ea565b9150509295509295909350565b612c0781612686565b82525050565b6000602082019050612c226000830184612bfe565b92915050565b6000819050919050565b6000612c4d612c48612c438461269f565b612c28565b61269f565b9050919050565b6000612c5f82612c32565b9050919050565b6000612c7182612c54565b9050919050565b612c8181612c66565b82525050565b6000602082019050612c9c6000830184612c78565b92915050565b600060208284031215612cb857612cb76128c9565b5b6000612cc684828501612a2b565b91505092915050565b7f4e487b7100000000000000000000000000000000000000000000000000000000600052604160045260246000fd5b7f4e487b7100000000000000000000000000000000000000000000000000000000600052601160045260246000fd5b6000612d3882612686565b9150612d4383612686565b9250828203905081811115612d5b57612d5a612cfe565b5b92915050565b7f4e487b7100000000000000000000000000000000000000000000000000000000600052603260045260246000fd5b6000612d9b82612686565b91507fffffffffffffffffffffffffffffffffffffffffffffffffffffffffffffffff8203612dcd57612dcc612cfe565b5b600182019050919050565b600082825260208201905092915050565b7f496e76616c696420636f6e747261637420616464726573730000000000000000600082015250565b6000612e1f601883612dd8565b9150612e2a82612de9565b602082019050919050565b60006020820190508181036000830152612e4e81612e12565b9050919050565b7f5072696e636970616c206d7573742062652067726561746572207468616e2030600082015250565b6000612e8b602083612dd8565b9150612e9682612e55565b602082019050919050565b60006020820190508181036000830152612eba81612e7e565b9050919050565b7f5072696e636970616c206d757374206265206c657373207468616e206f72206560008201527f7175616c20746f2031206d696c6c696f6e000000000000000000000000000000602082015250565b6000612f1d603183612dd8565b9150612f2882612ec1565b604082019050919050565b60006020820190508181036000830152612f4c81612f10565b9050919050565b7f4475726174696f6e206d7573742062652067726561746572207468616e203000600082015250565b6000612f89601f83612dd8565b9150612f9482612f53565b602082019050919050565b60006020820190508181036000830152612fb881612f7c565b9050919050565b7f4475726174696f6e206d757374206265206c657373207468616e206f7220657160008201527f75616c20746f2033363520646179730000000000000000000000000000000000602082015250565b600061301b602f83612dd8565b915061302682612fbf565b604082019050919050565b6000602082019050818103600083015261304a8161300e565b9050919050565b7f496e746572657374206d757374206265206c657373207468616e206f7220657160008201527f75616c20746f2031303025000000000000000000000000000000000000000000602082015250565b60006130ad602b83612dd8565b91506130b882613051565b604082019050919050565b600060208201905081810360008301526130dc816130a0565b9050919050565b7f496e746572657374206d7573742062652067726561746572207468616e203000600082015250565b6000613119601f83612dd8565b9150613124826130e3565b602082019050919050565b600060208201905081810360008301526131488161310c565b9050919050565b7f4e6f742074686520626f72726f77657200000000000000000000000000000000600082015250565b6000613185601083612dd8565b91506131908261314f565b602082019050919050565b600060208201905081810360008301526131b481613178565b9050919050565b7f4d6f727467616765206e6f7420696e20737570706c6965642073746174650000600082015250565b60006131f1601e83612dd8565b91506131fc826131bb565b602082019050919050565b60006020820190508181036000830152613220816131e4565b9050919050565b600061323282612686565b915061323d83612686565b925082820190508082111561325557613254612cfe565b5b92915050565b7f4d6f727467616765206f76657264756500000000000000000000000000000000600082015250565b6000613291601083612dd8565b915061329c8261325b565b602082019050919050565b600060208201905081810360008301526132c081613284565b9050919050565b6132d0816126bf565b82525050565b60006020820190506132eb60008301846132c7565b92915050565b600081519050613300816128d3565b92915050565b60006020828403121561331c5761331b6128c9565b5b600061332a848285016132f1565b91505092915050565b7f496e73756666696369656e742066756e647320666f722072657061796d656e74600082015250565b6000613369602083612dd8565b915061337482613333565b602082019050919050565b600060208201905081810360008301526133988161335c565b9050919050565b60006040820190506133b460008301856132c7565b6133c160208301846132c7565b9392505050565b7f496e73756666696369656e7420616c6c6f77616e636500000000000000000000600082015250565b60006133fe601683612dd8565b9150613409826133c8565b602082019050919050565b6000602082019050818103600083015261342d816133f1565b9050919050565b60008160001c9050919050565b6000819050919050565b600061345e61345983613434565b613441565b9050919050565b600073ffffffffffffffffffffffffffffffffffffffff82169050919050565b600061349861349383613434565b613465565b9050919050565b60008160a01c9050919050565b600060ff82169050919050565b60006134cc6134c78361349f565b6134ac565b9050919050565b610140820160008083015490506134e98161344b565b6134f66000860182612690565b50600183015490506135078161344b565b6135146020860182612690565b50600283015490506135258161344b565b6135326040860182612690565b50600383015490506135438161344b565b6135506060860182612690565b50600483015490506135618161344b565b61356e6080860182612690565b506005830154905061357f8161344b565b61358c60a0860182612690565b506006830154905061359d81613485565b6135aa60c08601826126d1565b50600783015490506135bb81613485565b6135c860e08601826126d1565b50600883015490506135d981613485565b6135e76101008601826126d1565b506135f1816134b9565b6135ff610120860182612748565b5050505050565b60006101408201905061361c60008301846134d3565b92915050565b7f4d6f727467616765206e6f7420696e2070656e64696e67207374617465000000600082015250565b6000613658601d83612dd8565b915061366382613622565b602082019050919050565b600060208201905081810360008301526136878161364b565b9050919050565b7f4e6f7420746865206c656e646572000000000000000000000000000000000000600082015250565b60006136c4600e83612dd8565b91506136cf8261368e565b602082019050919050565b600060208201905081810360008301526136f3816136b7565b9050919050565b7f4d6f727467616765206e6f74206f766572647565206f7220616c72656164792060008201527f7265706169640000000000000000000000000000000000000000000000000000602082015250565b6000613756602683612dd8565b9150613761826136fa565b604082019050919050565b6000602082019050818103600083015261378581613749565b9050919050565b7f426f72726f7765722063616e6e6f74206265206c656e64657200000000000000600082015250565b60006137c2601983612dd8565b91506137cd8261378c565b602082019050919050565b600060208201905081810360008301526137f1816137b5565b9050919050565b7f496e76616c69642073656e646572206164647265737300000000000000000000600082015250565b600061382e601683612dd8565b9150613839826137f8565b602082019050919050565b6000602082019050818103600083015261385d81613821565b9050919050565b7f496e76616c696420726563656976657220616464726573730000000000000000600082015250565b600061389a601883612dd8565b91506138a582613864565b602082019050919050565b600060208201905081810360008301526138c98161388d565b9050919050565b7f416d6f756e74206d7573742062652067726561746572207468616e207a65726f600082015250565b6000613906602083612dd8565b9150613911826138d0565b602082019050919050565b60006020820190508181036000830152613935816138f9565b9050919050565b7f416d6f756e74206d757374206265206c657373207468616e206f72206571756160008201527f6c20746f2031206d696c6c696f6e000000000000000000000000000000000000602082015250565b6000613998602e83612dd8565b91506139a38261393c565b604082019050919050565b600060208201905081810360008301526139c78161398b565b9050919050565b7f496e73756666696369656e742062616c616e6365000000000000000000000000600082015250565b6000613a04601483612dd8565b9150613a0f826139ce565b602082019050919050565b60006020820190508181036000830152613a33816139f7565b9050919050565b6000606082019050613a4f60008301866132c7565b613a5c60208301856132c7565b613a696040830184612bfe565b949350505050565b60008115159050919050565b613a8681613a71565b8114613a9157600080fd5b50565b600081519050613aa381613a7d565b92915050565b600060208284031215613abf57613abe6128c9565b5b6000613acd84828501613a94565b91505092915050565b7f496e76616c6964206d6f72746761676520494400000000000000000000000000600082015250565b6000613b0c601383612dd8565b9150613b1782613ad6565b602082019050919050565b60006020820190508181036000830152613b3b81613aff565b905091905056fea2646970667358221220af31571d1bf0ff901ed670fc96de0b4472f66a91db8f87e1107ea3f2c30467b664736f6c634300081c0033",
  "devdoc": {
    "kind": "dev",
    "methods": {
      "onERC721Received(address,address,uint256,bytes)": {
        "details": "Whenever an {IERC721} `tokenId` token is transferred to this contract via {IERC721-safeTransferFrom} by `operator` from `from`, this function is called. It must return its Solidity selector to confirm the token transfer. If any other value is returned or the interface is not implemented by the recipient, the transfer will be reverted. The selector can be obtained in Solidity with `IERC721Receiver.onERC721Received.selector`."
      }
    },
    "version": 1
  },
  "userdoc": {
    "kind": "user",
    "methods": {},
    "version": 1
  },
  "storageLayout": {
    "storage": [
      {
        "astId": 8148,
        "contract": "contracts/MortgageToken.sol:MortgageToken",
        "label": "mortgageId",
        "offset": 0,
        "slot": "0",
        "type": "t_uint256"
      },
      {
        "astId": 8153,
        "contract": "contracts/MortgageToken.sol:MortgageToken",
        "label": "mortgageIdToMortgage",
        "offset": 0,
        "slot": "1",
        "type": "t_mapping(t_uint256,t_struct(Mortgage)8438_storage)"
      },
      {
        "astId": 8314,
        "contract": "contracts/MortgageToken.sol:MortgageToken",
        "label": "cryptoPawnToken",
        "offset": 0,
        "slot": "2",
        "type": "t_contract(ICryptoPawnToken)7770"
      },
      {
        "astId": 8175,
        "contract": "contracts/MortgageToken.sol:MortgageToken",
        "label": "storedNFTs",
        "offset": 0,
        "slot": "3",
        "type": "t_mapping(t_uint256,t_struct(NFT)8445_storage)"
      }
    ],
    "types": {
      "t_address": {
        "encoding": "inplace",
        "label": "address",
        "numberOfBytes": "20"
      },
      "t_contract(ICryptoPawnToken)7770": {
        "encoding": "inplace",
        "label": "contract ICryptoPawnToken",
        "numberOfBytes": "20"
      },
      "t_enum(MortgageState)7708": {
        "encoding": "inplace",
        "label": "enum MortgageState",
        "numberOfBytes": "1"
      },
      "t_mapping(t_uint256,t_struct(Mortgage)8438_storage)": {
        "encoding": "mapping",
        "key": "t_uint256",
        "label": "mapping(uint256 => struct Mortgage)",
        "numberOfBytes": "32",
        "value": "t_struct(Mortgage)8438_storage"
      },
      "t_mapping(t_uint256,t_struct(NFT)8445_storage)": {
        "encoding": "mapping",
        "key": "t_uint256",
        "label": "mapping(uint256 => struct NFT)",
        "numberOfBytes": "32",
        "value": "t_struct(NFT)8445_storage"
      },
      "t_struct(Mortgage)8438_storage": {
        "encoding": "inplace",
        "label": "struct Mortgage",
        "members": [
          {
            "astId": 8418,
            "contract": "contracts/MortgageToken.sol:MortgageToken",
            "label": "id",
            "offset": 0,
            "slot": "0",
            "type": "t_uint256"
          },
          {
            "astId": 8420,
            "contract": "contracts/MortgageToken.sol:MortgageToken",
            "label": "nftTokenId",
            "offset": 0,
            "slot": "1",
            "type": "t_uint256"
          },
          {
            "astId": 8422,
            "contract": "contracts/MortgageToken.sol:MortgageToken",
            "label": "principal",
            "offset": 0,
            "slot": "2",
            "type": "t_uint256"
          },
          {
            "astId": 8424,
            "contract": "contracts/MortgageToken.sol:MortgageToken",
            "label": "interest",
            "offset": 0,
            "slot": "3",
            "type": "t_uint256"
          },
          {
            "astId": 8426,
            "contract": "contracts/MortgageToken.sol:MortgageToken",
            "label": "duration",
            "offset": 0,
            "slot": "4",
            "type": "t_uint256"
          },
          {
            "astId": 8428,
            "contract": "contracts/MortgageToken.sol:MortgageToken",
            "label": "startTime",
            "offset": 0,
            "slot": "5",
            "type": "t_uint256"
          },
          {
            "astId": 8430,
            "contract": "contracts/MortgageToken.sol:MortgageToken",
            "label": "lender",
            "offset": 0,
            "slot": "6",
            "type": "t_address"
          },
          {
            "astId": 8432,
            "contract": "contracts/MortgageToken.sol:MortgageToken",
            "label": "borrower",
            "offset": 0,
            "slot": "7",
            "type": "t_address"
          },
          {
            "astId": 8434,
            "contract": "contracts/MortgageToken.sol:MortgageToken",
            "label": "nftContract",
            "offset": 0,
            "slot": "8",
            "type": "t_address"
          },
          {
            "astId": 8437,
            "contract": "contracts/MortgageToken.sol:MortgageToken",
            "label": "state",
            "offset": 20,
            "slot": "8",
            "type": "t_enum(MortgageState)7708"
          }
        ],
        "numberOfBytes": "288"
      },
      "t_struct(NFT)8445_storage": {
        "encoding": "inplace",
        "label": "struct NFT",
        "members": [
          {
            "astId": 8442,
            "contract": "contracts/MortgageToken.sol:MortgageToken",
            "label": "contractAddress",
            "offset": 0,
            "slot": "0",
            "type": "t_address"
          },
          {
            "astId": 8444,
            "contract": "contracts/MortgageToken.sol:MortgageToken",
            "label": "tokenId",
            "offset": 0,
            "slot": "1",
            "type": "t_uint256"
          }
        ],
        "numberOfBytes": "64"
      },
      "t_uint256": {
        "encoding": "inplace",
        "label": "uint256",
        "numberOfBytes": "32"
      }
    }
  }
}